:100000000C9447250C9478250C9478250C9478252D
:100010000C9478250C9478250C9478250D94A5578C
:100020000C9478250C9478250C9478250D94625FB7
:100030000C9478250C9478250C9478250D94786A86
:100040000C9478250C9478250C9478250C947825BC
:100050000C9478250C9478250C9478250C947825AC
:100060000C9478250D944A580D9479580C94782561
:100070000C9478250C9478250C9478250C9478258C
:100080000C9478250C9478250C9478250C9478257C
:100090000D94B4580D94E3580C9478250D94DA5CC3
:1000A0000C9478250D94A56A0C9478250C947825E9
:1000B0000C9478250C9478250D94D26A0C947825AC
:1000C0000C9478250C9478250D9432640D941E5967
:1000D0000D944D590C9478250D9488590D94B75969
:1000E0000C94782588278D27922797279C27A1276E
:1000F000A627AB27C027C027B027B527BA27A74E0A
:10010000AB4EA94EA74EA74EA94EA94EA94EAE4E34
:10011000AE4EAB4EAB4EAB4EAE4EAE4EAB4EAD4E0C
:10012000354F324F2A4F244F324F274F274F374FEB
:10013000374F354F354F354F374F374F354F1553B5
:10014000FA5231533851BC510152B252B752415355
:100150004153FB4F35513551415341533551B857F8
:10016000CF57D757C057C857DF5736581258095876
:1001700000581B5824582D58EE57F757B15753586D
:100180003F5867587058795882588858905871600D
:10019000A660A960CC6015619E5F1F5FEA71ED717A
:1001A000F07102722072EA71A371897705778977FD
:1001B0008977E5768977F476EA767E777E771677A3
:1001C0007E7764777E777E77797789771D83308332
:1001D00035833D834283498F4783498F498F498FB8
:1001E0004C83518356831CAF15AF25AF30AF40AF62
:1001F00055AF75AF9AAFA5AF37D74AD74FD778D796
:1002000086D7A5D7AED7D1D7D6D7F5D702D815D8A8
:100210001FD842D858D885D892D8B1D8C2D8E1D8FA
:10022000F2D820D936D966D96BD970D983D998D963
:10023000A5D9B4D9CAD9E8D905DA1FDA2DDA46DA50
:1002400060DA7D037D03D7027D03110411041104DC
:10025000110411047D031104110411041104D702C7
:10026000D702D702D702D702D70241034103F703CF
:100270002102DD0259049D03DB02CB034D039F03E2
:100280009F0301039F039F030103010345030D0423
:100290006F0245030D046F0245030D046F02050351
:1002A00051025102050305035102510205030503E2
:1002B000050305039502BB0395029502B302B30241
:1002C000BB03BB037D0221042104D103370449028F
:1002D00053020B048102ED021B03BF02A30287023B
:1002E00015035703E303230203048F022F048D0336
:1002F0006504BF03E702BB0229022304EB02B1033A
:100300002D024B021F030F04B703030351046B03B9
:100310006502850205044D046902FB028302650340
:100320003102036EDB363D9A9999993DABAAAA2A10
:100330003E000000803F084AD73B3BCE016E84BCA4
:10034000BFFDC12F3D6C74319ABD56833DDA3D002F
:10035000C77F11BED9E4BB4C3E916BAAAABE000078
:1003600000803F072C7AA5BA6CC590DA3B9365FCF8
:100370008BBC53F810FD3C5692834DBD879D3AB619
:100380003DCBC9BF5BBE73DA0FC93F05A84CCDB2E8
:10039000D44EB93836A9020C50B9918688083CA6CB
:1003A000AAAA2ABE000000803F08000000BE9224D6
:1003B00049123EABAAAA2ABECDCCCC4C3E000000CE
:1003C00080BEABAAAAAA3E00000000BF00000080C9
:1003D0003F0000000000084178D3BB4387D1133DA4
:1003E000190E3CC3BD4282AD2B3E68EC8276BED96D
:1003F0008FE1A93E4C80EFFFBE01C4FF7F3F0000AC
:100400000000000664EC1B3C04BC163E3BE5B93C16
:10041000C93C37C29E5A3D660498083EEA69AAAABA
:100420003E000000803F0D94F7670D94E7190D948E
:10043000145C0D9469670D9408630D94BA5A0D9479
:10044000FF670D942C270D9433610D946B660D940A
:1004500052570D949C610D94BD560D94B0610D944E
:1004600071560D9424620D941E5F0D945F350D94AA
:10047000851B0D9446440D94B8600D94A1680D94AD
:10048000961F0D944F5C0D94D2570D948E4C0D9485
:100490008F2C0D94CA600D94B5610D940B680D946A
:1004A0000C570D9451500D94D0600D94AB1D0D94CC
:1004B000884C0D94EC360D9418650D941F670D94BF
:1004C000B2540D94BF330D9458190D9401620D94DC
:1004D00055610D9415620D94D8570D9429140D94FF
:1004E0003F500D949F5B0D9464560D945B610D9489
:1004F000D5480D94F62B0D9496560D94B5600D9439
:10050000E3530D94D8600D9429620D9406620D9406
:10051000EC600D945A190D94BE640D9471630D94A2
:100520003B610D9412020D9434660D949D600D9400
:1005300089500D94DD1E0D94AC350D94F9350D9454
:10054000F0310D94AE190D94E8600D94F3560D94AE
:10055000E1190D948C5C0D9453560D948E600D949E
:1005600065350D949C670D94A7600D9446100D940D
:10057000995F0D941A5C0D9497610D94E65A0D9451
:10058000F1600D944D3D0D94ED610D948B430D94F0
:100590003E280D94B9620D94B4620D9430360D94DA
:1005A0002E5A0D946B560D94015D0D94D30F0D943E
:1005B000ED0E0D946A670D944F270D9423270D942B
:1005C0007E610D94232B0D94C7670D9489530D9470
:1005D0004F610D94C9610D94A6610D94DE600D9478
:1005E0001F630D94A8620D94D5560D9496530D94E7
:1005F000AE110D9485140D941A620D9415000D948E
:1006000052600D94524F0D94C4610D9470500D942E
:10061000F0500D946F630D942E620D94150D0D9492
:10062000A7620D9473650D942F3D0D9425610D9473
:1006300051180D947B350D94E2600D94CD620D94AC
:10064000BA610D94A6350D94803F0D94C3670D9447
:1006500068570D949B680D9498690D94982E0D948D
:10066000F2600D94E7670D9436360D944F1A0D9491
:10067000526A0D9434620D94B1620D945A420D94F5
:100680006D5E0D94FC260D94CF610D941D500D945C
:10069000CC0D0D94D6570D949D5E0D94A7270D9407
:1006A00066570D9472350D949E2B0D94A3550D94A1
:1006B00029610D9450620D9482670D94782E0D94EB
:1006C0001B610D9439570D941A5B0D941F620D94A4
:1006D000C15A0D9427410D94FC610D94E4630D946F
:1006E000A2670D9426470D9440700D9469680D948F
:1006F0001A1B0D94D5570D9476190D94E70E0D9491
:10070000F5650D9405060D94E55B0D94AD620D94B1
:100710000A240D94903D0D942B5F0D9445610D942A
:10072000130F0D947F0B0D9470670D9482660D94DA
:1007300058170D94D9630D942A3A0D943C270D94C3
:10074000494F0D94B6560D9456620D94A05E0D94CB
:10075000E3350D94D7670D945B680D94DD640D94BB
:10076000A3650D94AB610D94EC5A0D94B4190D94DE
:10077000BF610D94A3050D94A2600D94E9620D94E0
:100780004B610D94495C0D9404220D948A3D0D94A7
:100790003C630D94F6500D946A270D94EB5B0D9419
:1007A000BF670D94C2600D9442630D9481350D9422
:1007B00063480D94B10E0D9424660D94F3350D9499
:1007C000DB5A0D9422680D942D610D943A2A0D94F4
:1007D0007D180D94FA670D94C11A0D94DF260D94BF
:1007E000A8320D94D1670D943A630D94594B0D9432
:1007F0000C270D9451370D945B130D94BE5A0D9434
:100800009D690D94925C0D9437610D940B620D946B
:100810000B5F0D94FB0F0D94D4600D9422500D943A
:10082000C8610D94F00E0D94F8650D9478350D9413
:100830004C100D94FC5A0D94935F0D944B370D940E
:1008400088670D9498600D94A1610D94F8600D94E3
:10085000EA530D943D680D9427570D94A0280D94EC
:1008600041610D94141B0D94CB670D943E3D0D9486
:10087000C6600D9495560D94C55A0D946A650D94F5
:10088000DE5A0D94531D0D940F530D9465670D940E
:10089000190B0D94E95E0D9419670D9410620D9477
:1008A000303A0D94F7610D94C1020D9424530D94C8
:1008B0007F520D9434270D94EC630D94C71A0D9458
:1008C0001E650D94E6530D944D650D9454610D9481
:1008D0008B570D946F0D0D94553D0D948F500A4616
:1008E0004143544F525920524553455420636F6D34
:1008F000706C657465202D20706C65617365207265
:10090000657365742041504D20746F20636F6E7461
:10091000696E7565000A5479706520275927206132
:100920006E642068697420456E74657220746F204F
:10093000706572666F726D20666163746F72792084
:1009400072657365742C20616E79206F74686572AE
:10095000206B657920746F2061626F72743A200099
:100960004348383A202564207C202564207C2025BB
:10097000640A004348373A202564207C20256420FF
:100980007C2025640A004348363A202564207C20D8
:100990002564207C2025640A004348353A202564DC
:1009A000207C202564207C2025640A004348343ABA
:1009B000202564207C202564207C2025640A0043B7
:1009C00048333A202564207C202564207C2025643F
:1009D0000A004348323A202564207C202564207C8C
:1009E0002025640A004348313A202564207C2025D4
:1009F00064207C2025640A00526164696F0A000A41
:100A00004D6F766520616C6C20636F6E74726F6CD5
:100A10007320746F20656163682065787472656DFA
:100A2000652E2048697420456E74657220746F20AD
:100A3000736176653A200A000A4E6F20726164691C
:100A40006F3B20436865636B20636F6E6E656374F4
:100A50006F72732E000A0A526164696F20536574C5
:100A600075703A0A000A53617665642053657474A0
:100A7000696E67730A0A00466C69676874206D6F57
:100A80006465730A00506F732025643A20000A4D94
:100A90006F766520524320746F67676C65207377AB
:100AA0006974636820746F206561636820706F7378
:100AB0006974696F6E20746F20656469742C206D91
:100AC0006F76652061696C65726F6E2073746963FF
:100AD0006B20746F2073656C656374206D6F646543
:100AE000732E00416363656C206F66667365747373
:100AF0003A2025342E32662C2025342E32662C20C6
:100B000025342E3266097363616C653A2025342ED4
:100B100032662C2025342E32662C2025342E326667
:100B20000A004779726F206F6666736574733A20A6
:100B300025342E32662C2025342E32662C20253486
:100B40002E32660A00494E530A00496E6974696183
:100B50006C6973696E67206779726F73000A4F70F2
:100B600074696F6E733A5B6F6E2C6F66662C72657C
:100B70007365745D0A007265736574006F66660064
:100B8000436F6D7061737320696E697469616C691C
:100B9000736174696F6E206661696C656421006FB2
:100BA0006E00506172616D65746572206E6F7420A5
:100BB000666F756E643A20272573270A0043616EBD
:100BC0006E6F742073657420706172616D657465F9
:100BD00072206F6620747970652025642E0A005695
:100BE000616C7565206F7574206F662072616E6729
:100BF0006520666F72207479706520494E543136D5
:100C00000A0056616C7565206F7574206F662072DE
:100C1000616E676520666F72207479706520494E39
:100C200054380A00506172616D206E6F7420666FD7
:100C3000756E643A2025730A00496E76616C6964AA
:100C400020636F6D6D616E642E2055736167653A28
:100C500020736574203C6E616D653E203C76616C4E
:100C600075653E0A00646F6E650A000A457261731D
:100C7000696E6720454550524F4D0A000A547970FD
:100C8000652027592720616E642068697420456EAD
:100C900074657220746F20657261736520616C6C7D
:100CA00020776179706F696E7420616E6420706165
:100CB00072616D6574657220646174612C20616E6F
:100CC00079206F74686572206B657920746F20617C
:100CD000626F72743A20005365747570204D6F64B2
:100CE000650A0A494D504F5254414E543A206966A4
:100CF00020796F752068617665206E6F7420707240
:100D00006576696F75736C79207365742074686992
:100D1000732073797374656D2075702C20757365FD
:100D2000207468650A2772657365742720636F6D88
:100D30006D616E6420746F20696E697469616C699D
:100D40007A652074686520454550524F4D20746F78
:100D50002073656E7369626C652064656661756C8D
:100D6000742076616C7565730A616E6420746865C1
:100D70006E207468652027726164696F2720636F35
:100D80006D6D616E6420746F20636F6E6669677548
:100D9000726520666F7220796F7572207261646966
:100DA0006F2E0A0A0054657374204D6F64650A0A39
:100DB00000436F6D6D616E64733A0A20206C6F673B
:100DC0007320202020202020206C6F672072656116
:100DD000646261636B2F7365747570206D6F6465F9
:100DE0000A20207365747570202020202020207335
:100DF00065747570206D6F64650A20207465737466
:100E0000202020202020202074657374206D6F64C2
:100E1000650A20207265626F6F74202020202020D8
:100E20007265626F6F7420746F20666C6967687496
:100E3000206D6F64650A0A00494E3A09313A20254F
:100E40006409323A20256409333A20256409343A8A
:100E500020256409353A20256409363A202564099D
:100E6000373A20256409383A2025640A00494E2083
:100E7000313A20256409323A20256409333A202585
:100E80006409343A20256409353A20256409363A44
:100E900020256409373A20256409383A2025640A58
:100EA000002C0043483A004D6F64652825752900E1
:100EB0004C6F697465720052544C004155544F0098
:100EC000435255495345004642575F4200464257F8
:100ED0005F41004143524F00547261696E696E6711
:100EE0000053746162696C697A6500436972636C6E
:100EF00065004D616E75616C004C4F5320636175E8
:100F0000736564206E6F206368616E676520696E2B
:100F10002041504D2E0A005448524F54544C452005
:100F20004641494C5341464520414354495641545A
:100F300045443A2025642C2000434F4E54524F4CD8
:100F4000204D4F4445204348414E4745443A2000F8
:100F50005448524F54544C45204348414E47454411
:100F6000202564200A00556E706C756720626174DC
:100F7000746572792C207468726F74746C65206962
:100F80006E206E65757472616C2C207475726E20A3
:100F90006F666620726164696F2E0A0052656C612B
:100FA00079206F66660A0052656C6179206F6E0A5F
:100FB00000636F6D6D616E6420233A2025642069A3
:100FC000643A2564206F7074696F6E733A256420EB
:100FD00070313A25642070323A256C642070333ABF
:100FE000256C642070343A256C64200A004C6F69CB
:100FF000746572207261646975733A2025640A0A07
:1010000000486974207261646975733A2025640A26
:1010100000256420776179706F696E74730A0048E7
:101020006F6C6420616C746974756465206F6620F0
:1010300025646D0A00486F6C642063757272656E7A
:101040007420616C7469747564650A00426567692F
:101050006E205842656520582D4354552052616ECC
:10106000676520616E642052535349205465737440
:101070003A0A00202530327800253034783A005082
:101080006F736974696F6E2025640A00436F6E7414
:10109000726F6C20434820002E004C61743A20256A
:1010A0006C642C204C6F6E20256C642C20416C7479
:1010B0003A20256C646D2C2023736174733A2025CB
:1010C000640A00723A2534642020703A2534642082
:1010D00020793A2533642020673D2825352E316656
:1010E0002025352E31662025352E316629202061B8
:1010F0003D2825352E31662025352E3166202535B3
:101100002E3166290A00252E3166206D2F730A00C4
:1011100061697273706565643A2000616972737009
:101120006565643A2000416C743A2025302E3266A1
:101130006D2C205261773A2025662054656D7065CC
:101140007261747572653A20252E31660A006E6FE1
:1011500074206865616C74687900556E63616C69B0
:101160006272617465642072656C61746976652071
:1011700061697270726573737572650A004869748B
:1011800020456E74657220746F20657869742E0A2C
:101190000A002D004D6167206F6666736574733AAF
:1011A0002025342E34662C2025342E34662C202520
:1011B000342E34660A004D6167204465636C696EA5
:1011C0006174696F6E3A2025342E34660A003F3F01
:1011D0000048494C00484D433538343300484D43AE
:1011E000353838334C00436F6D706173733A2000AB
:1011F00061626C65640A0064697300656E00736106
:1012000076696E67206F66667365747300636F6DD1
:1012100070617373206E6F74206865616C74687997
:101220000048656164696E673A20256C642C20581B
:10123000595A3A2025642C2025642C2025642C0939
:1012400058595A6F66663A2025362E32662C20256C
:10125000362E32662C2025362E32660A00436F6DFC
:101260007061737320696E697469616C697361740C
:10127000696F6E206661696C65642100436F6D70F3
:101280006173733A20004C6F772042617474657209
:101290007920252E326656205573656420252E3020
:1012A00066206D4168005265636569766564205209
:1012B000657175657374202D206A756D7020746F6B
:1012C00020636F6D6D616E64202325690043616E3C
:1012D0006E6F74206368616E676520746F206E6F37
:1012E0006E2D4E617620636D642025750052656316
:1012F00065697665642052657175657374202D206B
:101300007265736574206D697373696F6E006661D1
:10131000696C656420746F207365742072616C6CF5
:101320007920706F696E74006261642072616C6C08
:101330007920706F696E7420696E646578006261EF
:10134000642072616C6C7920706F696E74206D65B9
:10135000737361676520636F756E740062616420EA
:1013600072616C6C7920706F696E74206D65737337
:10137000616765204944006261642066656E63654B
:1013800020706F696E74006261642066656E6365CB
:1013900020706F696E740066656E63696E67206D9C
:1013A0007573742062652064697361626C656400A2
:1013B000666C6967687420706C616E207265636525
:1013C0006976656400666C6967687420706C616E2C
:1013D000207570646174652072656A656374656404
:1013E00000556E6B6E6F776E20706172616D657403
:1013F000657220252E31367300556E6B6E6F776ED9
:1014000020706172616D6574657220696E646578C3
:1014100020256400636F6D6D616E64207265636585
:10142000697665643A200044656D6F205365727675
:101430006F7321007A65726F2061697273706565E0
:10144000642063616C6962726174656400626172D8
:101450006F6D657465722063616C69627261746935
:101460006F6E20636F6D706C6574650043616C69AD
:1014700062726174696E67206261726F6D65746516
:1014800072004E4F20616972737065656400426539
:1014900067696E6E696E6720494E532063616C699F
:1014A00062726174696F6E3B20646F206E6F74208E
:1014B0006D6F766520706C616E65000A0A2052655A
:1014C00061647920746F20464C592E003C7374611E
:1014D000727475705F67726F756E643E2047524F0D
:1014E000554E4420535441525400496E76616C6904
:1014F000642053455249414C335F42415544006C8E
:101500006F61645F616C6C20746F6F6B20256C750C
:1015100075730A00646F6E652E004669726D77619F
:101520007265206368616E67653A206572617369F0
:101530006E6720454550524F4D2E2E2E0A00496EA3
:10154000697469616C6973696E672041504D2E2E14
:101550002E000A507265737320454E544552203355
:101560002074696D657320746F20737461727420C8
:10157000696E7465726163746976652073657475EC
:10158000700A00436F6D7061737320696E697469CE
:10159000616C69736174696F6E206661696C656402
:1015A00021000A0A496E69742041726475506C61A9
:1015B0006E652056322E37360A0A4672656520520D
:1015C000414D3A2025750A426F617264205479704A
:1015D000653A2025640A004D5347204653204F4664
:1015E00046202575004D5347204653204F4E202559
:1015F00075004661696C73616665202D2053686FC4
:101600007274206576656E74206F666600666C691C
:10161000676874206D6F6465203D20257500466104
:10162000696C73616665202D2053686F7274206544
:1016300076656E74206F6E2C200054726967676542
:10164000726564204155544F2C2047505373706489
:10165000203D20252E316600426164204C61756E6C
:101660006368204155544F0054696D656F7574204F
:101670004155544F0041726D6564204155544F2CC3
:101680002078616363656C203D20252E3166206DD6
:101690002F732F732C2077616974696E6720252E54
:1016A0003166207365630054696D657220496E74FC
:1016B0006572727570746564204155544F00486FAF
:1016C0006C64696E6720636F7572736520256C6446
:1016D000007665726966795F636F6E6469746F6EB8
:1016E0003A20496E76616C6964206F72206E6F20BB
:1016F00063757272656E7420436F6E646974696F8E
:101700006E20636D64005265616368656420686F74
:101710006D65007665726966795F6E61763A204C18
:101720004F495445522074696D6520636F6D706C2C
:10173000657465007665726966795F6E61763A20D8
:101740004C4F49544552206F726269747320636F25
:101750006D706C65746500506173736564205761CA
:1017600079706F696E742023256920646973742011
:1017700025756D00526561636865642057617970F5
:101780006F696E7420232569206469737420257540
:101790006D004C616E6420436F6D706C65746520E4
:1017A0002D20486F6C6420636F7572736520256C03
:1017B0006400486F6C64696E6720636F757273654F
:1017C00020256C64007665726966795F6E61763A91
:1017D00020496E76616C6964206F72206E6F2063A1
:1017E000757272656E74204E617620636D64006759
:1017F000656F2D66656E6365207365747570206511
:1018000072726F720067656F2D66656E6365206C1E
:101810006F616465640067656F2D66656E63652042
:101820007472696767657265640067656F2D6665C8
:101830006E6365204F4B0052656C617920746F6751
:10184000676C6500475F44745F6D61783D256C751A
:101850000A0052656C617920746F67676C6500528D
:10186000656C6179206F66660052656C6179206FE6
:101870006E0067707320616C743A20256C75006986
:101880006E697420686F6D650053657420746872AA
:101890006F74746C65202575005365742067726FD2
:1018A000756E6473706565642025750053657420DA
:1018B0006169727370656564202575206D2F7300F2
:1018C00073657474696E6720636F6D6D616E6420FB
:1018D000696E6465783A202569004A756D702074D8
:1018E0006F2057502025752E204A756D7073206C1F
:1018F0006566743A20256400536B697070696E6781
:1019000020696E76616C6964206A756D7020746FF1
:10191000202569004A756D7073206C6566743A20E5
:1019200030202D20736B697070696E6700444F5FC3
:101930005345545F524F49206E6F74207375707019
:101940006F7274656400457865637574696E6720AD
:10195000636F6D6D616E64204944202325690045E5
:101960007865637574696E6720636F6D6D616E6411
:101970002049442023256900283229204E6F6E2DEE
:101980004E617620636F6D6D616E642049442075F1
:1019900070646174656420746F2023256920696414
:1019A000783D2575004E6F6E2D4E617620636F6D0C
:1019B0006D616E64204944207570646174656420B3
:1019C000746F20232569206964783D2575006F7543
:1019D00074206F6620636F6D6D616E647321004EBD
:1019E000617620636F6D6D616E6420696E646578E9
:1019F000207570646174656420746F20232569000C
:101A0000526573657474696E6720707265765F578E
:101A10005000457865637574696E67206E61762045
:101A2000636F6D6D616E6420494420232569005207
:101A3000657475726E696E6720746F20486F6D658E
:101A400000666C69676874206D6F6465203D2025B1
:101A500075004661696C73616665202D204C6F6E60
:101A600067206576656E74206F6E2C200074657338
:101A7000740070776D00000000000000000000009E
:101A8000596B726164696F00000000000000000083
:101A9000716D7061737374687275000000000000EE
:101AA000C7386661696C73616665000000000000FC
:101AB000736C72656C61790000000000000000002A
:101AC000D92B776179706F696E7473000000000024
:101AD00049497862656500000000000000000000D0
:101AE0000B28656564756D70000000000000000043
:101AF000C3376D6F646573776974636800000000B5
:101B00005E386770730000000000000000000000F5
:101B1000552B7261776770730000000000000000B1
:101B20005A28696E730000000000000000000000E9
:101B3000E42F616972737065656400000000000045
:101B40006A5A61697270726573737572650000001C
:101B5000B159636F6D706173730000000000000085
:101B60005F5341726475506C616E652056322E373A
:101B700036006C6F6773000000000000000000007A
:101B8000A12573657475700000000000000000005E
:101B90007F377465737400000000000000000000CF
:101BA00064377265626F6F7400000000000000000F
:101BB000592768656C7000000000000000000000FC
:101BC0004227736574757000726573657400000058
:101BD0000000000000002E3A726164696F0000008E
:101BE000000000000000D36E6D6F6465730000009C
:101BF0000000000000000F6E6C6576656C00000050
:101C0000000000000000635B616363656C0000001E
:101C10000000000000009F41636F6D7061737300EE
:101C20000000000000008C436465636C696E6174A1
:101C3000696F6E0000007B4373686F7700000000DF
:101C4000000000000000703A73657400000000009E
:101C500000000000000073466572617365000000BB
:101C60000000000000009E26F1000400524C4C329F
:101C70005352565F500000000000000000F10104C4
:101C800000524C4C325352565F4900000000000095
:101C90000000F1020400524C4C325352565F440093
:101CA00000000000000000F1030400524C4C3253CD
:101CB00052565F494D41580000000000F2000400F8
:101CC00050544348325352565F5000000000000009
:101CD00000F201040050544348325352565F490009
:101CE000000000000000F202040050544348325348
:101CF00052565F4400000000000000F20304005050
:101D0000544348325352565F494D41580000000039
:101D100086000100424154545F4D4F4E49544F528A
:101D20000000000000A8000100424154545F564FDB
:101D30004C545F50494E00000000A9000100424190
:101D400054545F435552525F50494E000000008783
:101D5000000400424154545F564F4C545F4D554C63
:101D60005400000088000400424154545F414D502B
:101D70005F504552564F4C54008F0004004241546E
:101D8000545F414D505F4F464653455400008A0012
:101D90000300424154545F43415041434954590068
:101DA00000000008690100BC0261790100E8037CC1
:101DB0002F01000019433901004006D44F0100787B
:101DC00005294A0100AC0D3B6301004006F279078A
:101DD00000E803D45C0100E803C0800500740E86AF
:101DE0005E0500B80BE6540500B00432400500B0B3
:101DF00004A77F0500480DA73D0500E803AF770560
:101E0000008813A0250500E803AC900100A4069FFC
:101E10005D0100B80BC22C0100DC05DC5D0F00DCAD
:101E200005672705002C013E790500E803B92C0160
:101E300000DC05942501008403B42C01002C01670B
:101E40005C32003C0F0B780F00E803DE3C3200E808
:101E5000039F250500B004282A0500E80302464F29
:101E6000524D41545F56455253494F4E00000000B9
:101E70006B0F000000000153595349445F53575FF3
:101E80005459504500000000016D0F000000000291
:101E900053595349445F544849534D41560000003B
:101EA00000706E0F0000803F0253595349445F4D4C
:101EB0005947435300000000000071700F00007F7D
:101EC000430153455249414C305F42415544000063
:101ED00000000074720F0000E64201534552494170
:101EE0004C335F42415544000000000072730F0004
:101EF0000064420154454C454D5F44454C415900F6
:101F0000000000000073740F00000000044B464600
:101F10005F524444524D4958000000000000C9750A
:101F20000F0000003F044B46465F54485232505465
:101F300043480000000000CB7D0F0000000001536B
:101F40005449434B5F4D4958494E4700000000003B
:101F50001906100000803F01534B49505F4759520A
:101F60004F5F43414C000000002F8D0F0000000028
:101F7000014155544F5F4642575F53544545520007
:101F80000000308E0F0000000004544B4F46465FA7
:101F90005448525F4D494E535044002207100000F0
:101FA000000004544B4F46465F5448525F4D494E23
:101FB00041434300230B100000000001544B4F46E7
:101FC000465F5448525F44454C415900002E0F1063
:101FD00000000040014C4556454C5F524F4C4C5F51
:101FE0004C494D4954002510100000A040024C41BE
:101FF0004E445F50495443485F434400000000177B
:10200000ED0F00000000044C414E445F464C41522D
:10201000455F414C540000001BEF0F00004040049E
:102020004C414E445F464C4152455F53454300008E
:10203000001CF30F00000040014E41565F434F4E1D
:1020400054524F4C4C4552000000288B0F0000802A
:102050003F04414C545F4D4958000000000000000F
:10206000000000838F0F0000803F01414C545F430C
:1020700054524C5F414C4700000000007C930F001D
:1020800000000002414C545F4F4646534554000047
:10209000000000000020CD0F0000000001434D446F
:1020A0005F544F54414C0000000000000000DD95DB
:1020B0000F0000000001434D445F494E4445580065
:1020C00000000000000000DE960F00000000025734
:1020D000505F524144495553000000000000000089
:1020E000DF970F0000F0410257505F4D41585F529B
:1020F00041444955530000000031990F0000000091
:102100000257505F4C4F495445525F5241440000C2
:102110000000E09B0F000070420146454E43455FC2
:10212000414354494F4E0000000000E19D0F000064
:1021300000000146454E43455F544F54414C00005A
:1021400000000000E29E0F000000000146454E43E3
:10215000455F4348414E4E454C00000000E39F0F51
:10216000000000000246454E43455F4D494E414C3C
:10217000540000000000E4A00F00000000024645EB
:102180004E43455F4D4158414C540000000000E56E
:10219000A20F000000000152414C4C595F544F54B3
:1021A000414C000000000000EEA40F0000000004FD
:1021B00052414C4C595F4C494D49545F4B4D0000C6
:1021C0000034A50F0000A0400241525350445F4626
:1021D00042575F4D494E0000000078041100001086
:1021E000410241525350445F4642575F4D415800AF
:1021F0000000007906110000B04101464257425FDD
:10220000454C45565F524556000000007BA90F0023
:1022100000000001464257425F434C494D425F5225
:1022200041544500007DAA0F00000040015448526F
:102230005F4D494E00000000000000000000B500A6
:102240001100000000015448525F4D415800000049
:1022500000000000000000B6011100009642015489
:1022600048525F534C45575241544500000000000E
:10227000BD02110000C842015448525F53555050EE
:102280005F4D414E0000000000BEAB0F000000009B
:10229000015448525F504153535F53544142000030
:1022A0000000BFAC0F00000000015448525F4641DF
:1022B000494C534146450000000000B7AD0F0000F7
:1022C000803F025448525F46535F56414C5545008B
:1022D00000000000B8AE0F00806D44015452494D1B
:1022E0005F5448524F54544C4500000000B903114C
:1022F00000003442015448524F54544C455F4E55EF
:102300004447450000001FB00F0000803F014653C6
:102310005F53484F52545F4143544E00000000BA8F
:10232000B10F000000000446535F53484F52545F02
:1023300054494D454F555400C3B30F0000C03F01F1
:1023400046535F4C4F4E475F4143544E00000000E0
:1023500000BBB20F000000000446535F4C4F4E47D5
:102360005F54494D454F55540000C4B70F0000A0BD
:10237000410446535F424154545F564F4C544147C9
:10238000450000C1BC0F000000000446535F4241FD
:1023900054545F4D4148000000000000C2C00F00CF
:1023A0000000000146535F4743535F454E41424C96
:1023B0000000000000BCBB0F0000000001464C54B0
:1023C0004D4F44455F434800000000000000D2C468
:1023D0000F0000004101464C544D4F444531000070
:1023E00000000000000000D3C50F0000304101468E
:1023F0004C544D4F444532000000000000000000E6
:10240000D4C60F0000304101464C544D4F44453373
:10241000000000000000000000D5C70F0000A04031
:1024200001464C544D4F444534000000000000006C
:102430000000D6C80F0000A04001464C544D4F4448
:102440004535000000000000000000D7C90F000063
:10245000000001464C544D4F44453600000000003A
:1024600000000000D8CA0F00000000024C494D5F78
:10247000524F4C4C5F434400000000000098CB0FCB
:1024800000A08C45024C494D5F50495443485F4D74
:102490004158000000009908110080BB44024C49DB
:1024A0004D5F50495443485F4D494E000000009A2B
:1024B0000A1100401CC5024143524F5F524F4C4C21
:1024C0005F524154450000007ECF0F0000344302AC
:1024D0004143524F5F50495443485F524154450075
:1024E000007FD10F00003443014143524F5F4C4FF6
:1024F000434B494E47000000000080D30F0000000E
:10250000000447524F554E445F53544545525F4176
:102510004C540032810F000000000247524F554ECC
:10252000445F53544545525F4450530033850F0078
:1025300000B442015452494D5F4155544F000000D0
:1025400000000000000AD40F0000000001454C45C7
:10255000564F4E5F4D4958494E47000000000DD57B
:102560000F0000000001454C45564F4E5F52455646
:10257000455253450000000EDC0F000000000145ED
:102580004C45564F4E5F4348315F52455600000060
:102590000FDD0F0000000001454C45564F4E5F43D4
:1025A00048325F52455600000010DE0F0000000068
:1025B00001565441494C5F4F55545055540000004A
:1025C000000027D60F0000000001454C45564F4E35
:1025D0005F4F55545055540000000029D70F00009C
:1025E0000000044D4958494E475F4741494E00009D
:1025F000000000002BD80F0000003F025359535F2A
:102600004E554D5F52455345545300000002DF0FB5
:1026100000000000024C4F475F4249544D41534B6C
:102620000000000000000BE10F00F0FB45015253D9
:10263000545F5357495443485F4348000000001516
:10264000E30F00000000015253545F4D49535349BA
:102650004F4E5F43480000001AE40F0000000003E3
:102660005452494D5F41525350445F434D00000066
:10267000009BE50F00009644045343414C494E47EC
:102680005F535045454400000000CC870F000070A8
:1026900041034D494E5F474E445350445F434D0004
:1026A0000000009EF70F00000000025452494D5FE9
:1026B00050495443485F4344000000000CFB0F00A6
:1026C00000000003414C545F484F4C445F52544C4F
:1026D00000000000009CE90F00401C4602414C54E1
:1026E0005F484F4C445F464257434D0000007AFD1F
:1026F0000F00000000014D41475F454E41424C45EF
:102700000000000000000084FF0F0000803F014631
:102710004C41505F315F504552434E540000000021
:102720001100100000000001464C41505F315F5322
:102730005045454400000000001201100000000058
:1027400001464C41505F325F504552434E540000A9
:1027500000001302100000000001464C41505F329F
:102760005F53504545440000000000140310000072
:10277000000001525353495F50494E0000000000D1
:1027800000000000A70410000080BF01494E56451C
:1027900052544544464C545F43480000009D051088
:1027A0000000000008474E445F00000000000000E9
:1027B0000000000000008DAF0EC12D000008434155
:1027C0004D5F00000000000000000000000000A0BD
:1027D000F4075C3600000852454C41595F00000088
:1027E00000000000000000002D10082A360000083C
:1027F0005243315F000000000000000000000000B4
:1028000000AA111049350000085243325F00000051
:1028100000000000000000000000AB2E1049350051
:1028200000085243335F0000000000000000000079
:10283000000000AC4B1049350000085243345F00E3
:10284000000000000000000000000000AD6810491A
:10285000350000085243355F000000000000000012
:102860000000000000AE8510DF350000085243363E
:102870005F00000000000000000000000000AFA3A7
:1028800010DF350000085243375F000000000000F1
:1028900000000000000000B0C110DF350000085249
:1028A00043385F000000000000000000000000004E
:1028B000B1DF10DF35000008524C4C325352565FE6
:1028C000000000000000000000E8A8099D3800009A
:1028D0000850544348325352565F00000000000035
:1028E0000000E97E09BC37000008594157325352B5
:1028F000565F000000000000000000EA4C09FB39B0
:102900000000085354454552325352565F000000B0
:1029100000000000EF28094C39000008434F4D50DB
:102920004153535F00000000000000000085CD0D02
:102930002E3000000853434845445F00000000006B
:102940000000000000002C560F6B450000085243A9
:102950004D41505F0000000000000000000000EC4E
:10296000520FE8450000085352305F00000000009D
:1029700000000000000000006E9D08602A000008B2
:102980005352335F00000000000000000000000010
:10299000006F1508602A000008494E535F000000D0
:1029A0000000000000000000000021AD0C483200D3
:1029B0000008414852535F00000000000000000082
:1029C0000000008C3F0B3634000008415253504445
:1029D0005F00000000000000000000008E23070DD3
:1029E000370000084E41564C315F000000000000E7
:1029F0000000000000EB150B9D4500000854454306
:102A0000535F000000000000000000000000EDCC5B
:102A10000965460000084D4E545F000000000000AC
:102A200000000000000000A1D905913B0000084211
:102A30004154545F0000000000000000000000004E
:102A4000A69C07AA4700000000000000000000004C
:102A50000000000000000000000000000000000076
:102A600002005241575F53454E53000000000000E2
:102A700000000068000000803F02014558545F5389
:102A80005441540000000000000000006A000000F3
:102A9000803F020252435F4348414E000000000065
:102AA00000000000006C000000803F02035241570C
:102AB0005F4354524C0000000000000000006E0014
:102AC0000000803F0204504F534954494F4E0000CC
:102AD0000000000000000070000000803F0205457B
:102AE0005854524131000000000000000000000076
:102AF00072000000803F02064558545241320000E7
:102B000000000000000000000074000000803F0290
:102B100007455854524133000000000000000000F7
:102B2000000076000000803F0208504152414D53A2
:102B300000000000000000000000007800000020FD
:102B40004100FF0000000000000000000000000045
:102B5000000000000000000000002C76D888674FBD
:102B60000823C1DFAE59B1B796E5E453C63A51998F
:102B70007696E6C28426898C9B62407C6FFCBC9C66
:102B80009F40BAA56FA590055A2A5C936B6C676D40
:102B9000C11BE0E40D47F520E6B5D0ED902E009482
:102BA00035770080841E0000204E000000C83333BB
:102BB0003333986E128341EF8D21893BE655CFFE6A
:102BC000E6DBD1844B38F77C1D90A4BBE42432842F
:102BD000725E8100C9F1ECA1E53DDCDFE1E3E6E8EE
:102BE000EBEDEFF2F4F7F9FCFE000305080A0C0F19
:102BF000111416181B1D202224276E616E00696EA9
:102C00006600202025530A00436F6D6D616E64736A
:102C10003A00496E76616C696420636F6D6D616E18
:102C2000642C2074797065202768656C70270065B6
:102C30007869740068656C700025535D20004261FE
:102C40006420636F6E76657273696F6E207479703D
:102C50006520272553270A00556E6B6E6F776E200F
:102C6000636F6E76657273696F6E20272553270A2E
:102C70000025733A2025660A0025733A20256C64E6
:102C80000A0025733A2025640A0025733A2025643A
:102C90000A00454550524F4D2066756C6C00B56278
:102CA00006010300010601124F24505542582C34EE
:102CB000312C312C303030332C303030312C333813
:102CC0003430302C302A32360D0A0050414E494300
:102CD0003A2041505F4261726F3A3A7265616420F6
:102CE000756E7375636365737366756C20666F725A
:102CF000206D6F7265207468616E203530306D73A1
:102D000020696E2041505F4261726F3A3A63616C94
:102D1000696272617465205B335D0D0A0050414E3B
:102D200049433A2041505F4261726F3A3A7265619D
:102D30006420756E7375636365737366756C206666
:102D40006F72206D6F7265207468616E203530304F
:102D50006D7320696E2041505F4261726F3A3A6331
:102D6000616C696272617465205B325D0D0A0050AE
:102D7000414E49433A2041505F4261726F3A3A7284
:102D800065616420756E7375636365737366756CD6
:102D900020666F72206D6F7265207468616E2035D9
:102DA00030306D7320696E2041505F4261726F3A1E
:102DB0003A63616C696272617465205B315D0D0A12
:102DC0000004024142535F5052455353000000003B
:102DD000000000000C0000000000040354454D50AA
:102DE00000000000000000000000000000080000DB
:102DF0000000000104414C545F4F464653455400C7
:102E000000000000000010000000000000FF0000B3
:102E100000000000000000000000000000000000B2
:102E2000000000000050414E49433A2041505F42AB
:102E300061726F5F4D533536313120746F6F6B2087
:102E40006D6F7265207468616E20313030306D7343
:102E500020746F20696E697469616C697A650050CD
:102E6000414E49433A2041505F4261726F5F4D537A
:102E7000353631313A206661696C656420746F20A3
:102E800074616B652073657269616C2073656D6137
:102E900070686F726520666F7220696E6974005089
:102EA000414E49433A2041505F4261726F5F4D533A
:102EB000353631313A204E554C4C2073657269617C
:102EC0006C206472697665720050414E49433A2025
:102ED0006661696C656420746F2074616B65205F46
:102EE0006932635F73656D203130302074696D65C0
:102EF0007320696E206120726F772C20696E2041EB
:102F0000505F4261726F5F4D53353631313A3A5FEF
:102F10007570646174650050414E49433A204150D8
:102F20005F4261726F5F4D533536313120646964A1
:102F3000206E6F74206765742076616C6964204927
:102F400032432073656D617068726F652100504176
:102F50004E49433A206661696C656420746F207441
:102F6000616B65205F7370695F73656D2031303010
:102F70002074696D657320696E206120726F772CF3
:102F800020696E2041505F4261726F5F4D5335364C
:102F900031313A3A5F7570646174650050414E4951
:102FA000433A2041505F4261726F5F4D5335363175
:102FB0003120646964206E6F7420676574207661C7
:102FC0006C6964205350492073656D617068726F3D
:102FD00065210050414E49433A2041505F426172A1
:102FE0006F5F4D533536313120646964206E6F74E4
:102FF000206765742076616C6964205350492064B1
:103000006576696365206472697665722100466140
:10301000696C656420746F2067657420484D433582
:103020003834332073656D6170686F726500050117
:103030004F465300000000000000000000000000A8
:10304000001100000000000402444543000000009D
:10305000000000000000000000001D000000000053
:1030600001034C4541524E000000000000000000EA
:103070000000000F000000803F0104555345000090
:10308000000000000000000000000000210000001F
:10309000803F01054155544F444543000000000066
:1030A000000000000022000000803F01064D4F5448
:1030B00043540000000000000000000000009E00DB
:1030C0000000000005074D4F540000000000000004
:1030D000000000000000009F000000000001084FF9
:1030E0005249454E5400000000000000000000005E
:1030F000100000000000010945585445524E414C53
:10310000000000000000000000230000000000009C
:10311000FF000000000000000000000000000000B0
:10312000000000000000000043616C69627261747D
:10313000696F6E204641494C45440A0043616C6901
:1031400062726174696F6E20737563636573736611
:10315000756C0A005363616C696E673A20252E32E4
:103160006620252E326620252E32660A004F6666BE
:10317000736574733A20252E326620252E32662020
:10318000252E32660A004661696C656420746F20E2
:1031900067657420494E532073616D706C650A0039
:1031A000506C6163652041504D20255320616E6451
:1031B00020707265737320616E79206B65792E0AB9
:1031C000006F6E20697473204241434B006E6F7331
:1031D00065205550006E6F736520444F574E006F49
:1031E0006E2069747320524947485420736964659E
:1031F000006F6E20697473204C45465420736964D7
:1032000065006C6576656C0020002A00496E697463
:1032100020416363656C000A6779726F206469649A
:10322000206E6F7420636F6E76657267653A2064F6
:103230006966663D2566206470730A002A00496E3F
:103240006974204779726F00020050524F44554311
:10325000545F494400000000000000260000000008
:103260000005014143435343414C0000000000006E
:103270000000000028000000000005024143434F09
:10328000464653000000000000000000003400002B
:1032900000000005034759524F4646530000000006
:1032A00000000000000040000000000001044D503C
:1032B00055364B5F46494C54455200000000004CC7
:1032C000000000000000FF000000000000000000FF
:1032D0000000000000000000000000000000466147
:1032E000696C656420746F20626F6F74204D505557
:1032F0003630303020352074696D6573004D50557F
:10330000363030303A20556E61626C6520746F2023
:103310006765742073656D6170686F72650049320E
:103320004320425950415353204D4F44450046617C
:10333000696C656420746F20626F6F74204D505506
:103340003630303020352074696D6573004D50552E
:10335000363030303A20556E61626C6520746F20D3
:103360006765742073656D6170686F7265005041A8
:103370004E49433A2041505F496E65727469616CF1
:1033800053656E736F725F4D5055363030303A3A38
:103390005F706F6C6C5F64617461206661696C65FD
:1033A0006420746F2074616B65204932432073651B
:1033B0006D6170686F72652073796E6368726F6E8D
:1033C0006F75736C790050414E49433A20666169CC
:1033D0006C656420746F20626F6F74204D50553699
:1033E00030303020352074696D6573004D5055368E
:1033F0003030302073746172747570206661696C4E
:1034000065643A206E6F2064617461207265616446
:10341000790054696D6564206F75742077616974F3
:10342000696E6720666F72207573657220726573AE
:10343000706F6E73650004024750535F4741494EF9
:1034400000000000000000000024000000803F0198
:10345000034750535F555345000000000000000033
:1034600000002C000000803F04045941575F5000C9
:1034700000000000000000000000001C00CDCC4C4B
:103480003E040552505F50000000000000000000A4
:10349000000000002000CDCC4C3E010657494E44B0
:1034A0005F4D41580000000000000000002D0000AA
:1034B00000000005085452494D00000000000000C3
:1034C0000000000000003E000000000001094F5213
:1034D00049454E544154494F4E0000000000002E13
:1034E0000000000000040A434F4D505F4245544124
:1034F00000000000000000002800CDCCCC3D010BF6
:103500004750535F4D494E53415453000000000053
:10351000002F000000C040010C4750535F44454C51
:103520004159000000000000000030000000004091
:1035300000FF00000000000000000000000000008C
:1035400000000000000000000002004D494E000095
:103550000000000000000000000000000A000080E1
:10356000894402015452494D00000000000000004F
:1035700000000000000C000080BB4402024D4158D6
:1035800000000000000000000000000000000E002D
:103590000080ED4401035245560000000000000089
:1035A0000000000000000010000000803F02054401
:1035B0005A000000000000000000000000000000B1
:1035C00011000000000000FF0000000000000000EB
:1035D00000000000000000000000000000000008E3
:1035E00000000000000000000000000000000000DB
:1035F0000000000049350000010146554E43544982
:103600004F4E0000000000000000001D0000000000
:103610000000FF00000000000000000000000000AB
:1036200000000000000000000000010050494E00B2
:10363000000000000000000000000000000000008A
:1036400000384200FF000000000000000000000001
:1036500000000000000000000000000001005452C3
:103660004947475F545950450000000000000000E2
:10367000000000000001014455524154494F4E00E2
:1036800000000000000000000100000020410202D4
:10369000534552564F5F4F4E00000000000000009F
:1036A0000002000080A2440203534552564F5F4F70
:1036B000464600000000000000000400008089442D
:1036C000040454524947475F4449535400000000E2
:1036D00000000009000000000000FF0000000000E2
:1036E00000000000000000000000000000000000DA
:1036F000000041697273706565642073656E736F55
:103700007220756E6865616C7468790A0001004505
:103710004E41424C45000000000000000000000047
:1037200009000000803F01015553450000000000E2
:10373000000000000000000000080000000000047D
:10374000024F4646534554000000000000000000B0
:1037500000000000000000000403524154494F00E3
:1037600000000000000000000000000400492EFFDF
:103770003F010450494E000000000000000000001E
:10378000000000000A000000000001054155544FF0
:1037900043414C000000000000000000000B00004E
:1037A00000000000FF00000000000000000000001A
:1037B000000000000000000000000000040054436E
:1037C0004F4E5354000000000000000000000002B3
:1037D000000000003F040150000000000000000055
:1037E00000000000000000000600CDCCCC3E04022A
:1037F0004400000000000000000000000000000085
:10380000000E000AD7A33C0403490000000000009A
:10381000000000000000000000000A00000000009E
:103820000204524D41585F55500000000000000056
:103830000000001200000000000205524D41585FD8
:10384000444E0000000000000000000014000000D2
:1038500000000406524C4C00000000000000000074
:10386000000000000016000000803F0207494D41A3
:1038700058000000000000000000000000001A00D6
:103880000080BB4400FF00000000000000000000BA
:1038900000000000000000000000000000040054D0
:1038A000434F4E5354000000000000000000000091
:1038B00002000000003F0401500000000000000072
:1038C0000000000000000000000600CDCCCC3E044B
:1038D00002440000000000000000000000000000A2
:1038E00000000E000AD7A33C0403490000000000BA
:1038F00000000000000000000000000A00000000BE
:10390000000204524D415800000000000000000079
:10391000000000001200000000000205494D41585F
:103920000000000000000000000000000014000083
:1039300080BB4400FF000000000000000000000009
:1039400000000000000000000000000004005443DC
:103950004F4E535400000000000000000000000023
:10396000000000403F040150000000000000000083
:10397000000000000000000004006666E63F04034B
:1039800049000000000000000000000000000000EE
:10399000000800CDCC4C3E040444000000000000B0
:1039A000000000000000000000000C000AD7A33B4C
:1039B0000205494D415800000000000000000000D1
:1039C00000000014000080BB4404064D494E5350D3
:1039D0004400000000000000000000001000000093
:1039E000803F00FF00000000000000000000000019
:1039F00000000000000000000000000400534C49DB
:103A00005000000000000000000000000000020064
:103A1000000000000401494E5400000000000000B6
:103A20000000000000000006000000000004024446
:103A3000414D5000000000000000000000000000A8
:103A40000A00000000000403524C4C00000000007B
:103A50000000000000000000000E000000803F0297
:103A600005494D4158000000000000000000000022
:103A7000000012000080BB4400FF000000000000B6
:103A80000000000000000000000000000000000036
:103A900000327C8900EDD9687700000059000000F1
:103AA0000000000000D69FDCA81817AA90437327D7
:103AB000F6B968EDF4DED409FEE61C1C84DDE80BE3
:103AC000992927D6DF8D210F036418EFEE1EF0B77A
:103AD000828200941500F37C0000001400988F008F
:103AE000007F6A00000000000000E7B73F360000DA
:103AF0000000000000AF669ED0385DD36C20B9EBAB
:103B00005D7C7C77040000000000000000000000E5
:103B100000000000000000000000000000000000A5
:103B2000000000002AF10F86DBD0BC541613158666
:103B3000004E44BD7F9A15159001EA49B51653A76A
:103B40008AEA000000000000000000000000000001
:103B50000000000000000000000000000000000065
:103B60000000000000000000000000000000000055
:103B70000000000000000000000000000000000045
:103B800000000000000000000000CC31AA2C532EE1
:103B90000001004D4F4445000000000000000000FF
:103BA000000000003600000000000501524554529C
:103BB00041435400000000000000000000470000E6
:103BC00000000005024E45555452414C00000000D3
:103BD0000000000000005300000000000503434FF8
:103BE0004E54524F4C000000000000000000005FE7
:103BF00000000000000104535441425F524F4C4CFE
:103C0000000000000000000033000000000001057B
:103C1000535441425F54494C5400000000000000DE
:103C2000003400000000000106535441425F50413F
:103C30004E00000000000000000035000000000001
:103C4000010752435F494E5F524F4C4C0000000049
:103C50000000003700000000000208414E474D49B7
:103C60004E5F524F4C000000000000003A0000A0E0
:103C70008CC50209414E474D41585F524F4C0000E0
:103C800000000000003C0000A08C45010A52435F88
:103C9000494E5F54494C54000000000000003800B9
:103CA00000000000020B414E474D494E5F54494C05
:103CB000000000000000003E0000A08CC5020C4186
:103CC0004E474D41585F54494C0000000000000031
:103CD000400000A08C45010D52435F494E5F5041AA
:103CE0004E0000000000000000390000000000024B
:103CF0000E414E474D494E5F50414E0000000000BE
:103D00000000420000A08CC5020F414E474D4158B3
:103D10005F50414E00000000000000440000A08CF5
:103D20004501104A535449434B5F5350440000002F
:103D30000000000046000000000000FF000000003E
:103D40000000000000000000000000000000000073
:103D5000000000801140114071327334333213126D
:103D600011321112933413145352310021030406FB
:103D7000080B2D0A090705040241C011C051125356
:103D80005473121112515273147332310021020410
:103D900005060708090806070624030201020001B8
:103DA00020012011C0011100313213741314331299
:103DB000F112D31251000102232506074644234283
:103DC000210001E0A0313213B4331112110011208F
:103DD00011005233121332112001222485042304CE
:103DE000020342410001E0A05112141315131534CF
:103DF00013325140012011521332310001222304A9
:103E00000504050423010382612001E011801132C1
:103E10001354151433323140210201003172314103
:103E20000223442302012201220102614001A01168
:103E3000805112141334151433123140010201035E
:103E400002012052111220212243042241022102A8
:103E5000A10001E02011405153741332114021029E
:103E60000302030201001112113200114122232228
:103E700021004102A18001601160110011323374F0
:103E80001312114001620302032131121112114079
:103E900001020102030201000100E121E0A0112062
:103EA0001211733433312001620362401211121176
:103EB00000110100010201220001200100E1C00106
:103EC000001180110012111312141334522001E258
:103ED0000221203112110011000100210201000114
:103EE00040210002410001E0601140111211131243
:103EF0001413141332110021220342010221000184
:103F00000011001211001120010041600100C100E8
:103F10000140112001601140511213121314331289
:103F20003100014203220102210001401100310051
:103F300011000100010001A0E10001A00180112099
:103F400031529312110021C2210021403100112071
:103F50001100010001E0E16001E011001172731233
:103F600031002142030102010220214011001120F1
:103F700011600140116001000102210200012001D5
:103F80004001A0513213125332112001020182214B
:103F90000021000100110031E0001100116021003A
:103FA0000102010201010021200100016011001144
:103FB0005213121413521100418201020001002118
:103FC000401100110011A0110031001120812201C7
:103FD00001000201002100016011005213121314AC
:103FE00013323101000201220142010021000100CF
:103FF0000111201100112011407100114001022116
:104000000201020100210221000100010011001241
:104010001112331234133211200102014201220124
:1040200000410001601120110011001100511231F6
:1040300020610201220200020102812011001211FE
:1040400073341332110041020182010061000180CA
:1040500011001100913231402142010202006261DF
:1040600040115214135433310041820122000102E5
:1040700000410001609112115251200122010301FF
:1040800002020082610051335415143331002102C1
:10409000012203424102A1803192133231004122B8
:1040A0000302010300220322010201401112339591
:1040B0003331010022010342032221220102610067
:1040C0000111001152131253123100412203220335
:1040D00000230203020102212032131416151716C1
:1040E00015331120016203020302032201A24140A1
:1040F00011125314131413321101000201020302AE
:104100000302020002230203222120321416371870
:104110001715131211002122030243024301030267
:1041200003822120111213141534151432110001C9
:1041300062230203004302034201201213151819DF
:104140003A1715131100210203026304E30203026C
:104150000302010240121314151715163412202100
:104160002243020300A3220100111215181C1E1D78
:10417000191613110002010302030423040324038C
:1041800004430423040302034220111214151718D8
:104190003615133121020302230203241E191512BE
:1041A000100E0C0B0A090909080808070606050481
:1041B00004040304040400000000000000000000E8
:1041C00027262123252325242722292A2A1C27289C
:1041D0002B33322725222C333130370000000000EA
:1041E000000000000000000001FFFFE000000000F0
:1041F000000001FFFFF000000000000001FFFFF8D9
:1042000000000000000001FFFFFE000000000000B1
:1042100003FFFFFF00000000000003FFFFFFF000AE
:10422000000000000FFFFFFFFE00000003FFFFFC87
:10423000000007FC00007FFFFFFC00000000000002
:10424000001FFFFE000000000096918C87827D78A1
:10425000736E69645F5A55504B46413C37322D2886
:10426000231E19140F0A050004090E13181D222716
:104270002C31363B40454A4F54595E63686D727726
:104280007C81868B90959A9FA4A9AEB3AFAAA5A076
:104290009B968F89837E78736E69645F5A55504B05
:1042A00047423E3935302C27231F1B16120E0905B5
:1042B0000103070B1014191D22262B2F34393D4200
:1042C000474C51565B60656B70757B80868C92970E
:1042D0009DA3A9AFB2ACA6A09A948F827C76706B96
:1042E00065605C57524E4A46413D3936322E2A2689
:1042F000221F1B1713100C08040102060A0E1216C7
:104300001A1E22262B2F33383D41464B4F54595EFF
:1043100064696F747A80878D949BA2AAB1AEA69FC0
:10432000979089826F68635E5955514D4946423F67
:104330003C3835322E2B2824211E1A1714100D0A52
:104340000603000306090D1014181C2024282C3025
:1043500034393D41464A4F54585D62676D737980E8
:10436000878F98A2ACB0A59A90867D766F55514DF7
:104370004A4744413F3C3A383533312E2B292623D6
:10438000201D1A1713100D0A070401010306090D59
:104390001013171A1E22262A2E32363A3E42464A59
:1043A0004E53575B5F64696E757C85909FB2A08D9C
:1043B0007D7067605A553E3C3A3937363433323077
:1043C0002F2E2C2A292724221F1C191613100D0A00
:1043D000070402000305080A0D1013161A1D2125F3
:1043E000292D3135383C4043464A4D505356595B90
:1043F0005E6165696F826D544D4A474442403E2E6E
:104400002E2D2C2C2B2A2A29292827262524232126
:104410001F1C1A1714100D0A0704010103050709D0
:104420000C0E1013161A1D2124282C3033373A3D58
:1044300040424447484A4A4B4A48443D30190216D4
:1044400021282B2D2E2F2E2E06090C0F1215171991
:104450001B1C1B1811040E2231383C3C3C3A3835E9
:10446000322F2B2824201C1915110D0905010206D5
:104470000A0E1115181C1F222527292A2B2B292645
:10448000211911080004080A0A0A08070402000397
:104490000616181A1C1E20211F1712516063625F36
:1044A0005D5956524E4A46423E3935312C28242019
:1044B0001B17130E0A060102060A0F13171B1F23F0
:1044C000262A2D313437393C3D3F3F3E3D39352F8B
:1044D00028211C17151313131416A8ADB2B0ABA6E0
:1044E000A19C97928D88837E79746F6A65605B5614
:1044F000514C47423D38332E29241F1A15100B0604
:104500000103080D12171C21262B30353A3F444970
:104510004E53585D62676C71767B80858A8F949963
:104520009EA3A85363686564756C6572206F766599
:104530007272756E207461736B5B25755D20282522
:10454000752F2575290A005363686564756C65725B
:1045500020736C6970207461736B5B25755D202816
:1045600025752F25752F2575290A00010044454220
:10457000554700000000000000000000000000009F
:104580000000000000FF000000000000000000002C
:1045900000000000000000000000000000040050C7
:1045A0004552494F44000000000000000000000098
:1045B0001D000000C841040144414D50494E4700D0
:1045C00000000000000000000021000000403F004B
:1045D000FF000000000000000000000000000000DC
:1045E00000000000000000000100524F4C4C000091
:1045F000000000000000000000000000000000803B
:104600003F010150495443480000000000000000F1
:104610000000000001000000004001025448524F19
:1046200054544C450000000000000000000300004E
:104630000040400103594157000000000000000005
:1046400000000000000002000000804000FF0000A9
:10465000000000000000000000000000000000005A
:1046600000000000000400434C4D425F4D415800E3
:10467000000000000000000051000000A040040104
:1046800053494E4B5F4D494E0000000000000000B2
:1046900000550000000040040254494D455F434F5F
:1046A0004E5354000000000000005D000000A040D8
:1046B00004035448525F44414D5000000000000084
:1046C00000000065000000003F0404494E544547C7
:1046D0005F4741494E000000000000006900CDCC5A
:1046E000CC3D0405564552545F4143430000000051
:1046F00000000000006D000000E040040648475440
:104700005F4F4D4547410000000000000000490098
:104710000000404004075350445F4F4D454741005F
:10472000000000000000004D00000000400408529E
:104730004C4C3254485200000000000000000000C1
:10474000710000002041040953504457454947482F
:1047500054000000000000000075000000803F04CD
:104760000A505443485F44414D500000000000008F
:104770000000610000000000040B53494E4B5F4DE8
:10478000415800000000000000000059000000A097
:104790004000FF00000000000000000000000000DA
:1047A0000000000000000000000001004D4F4E49D5
:1047B000544F520000000000000000000000000004
:1047C0000000000101564F4C545F50494E0000005C
:1047D0000000000000000100000080BF01024355FE
:1047E00052525F50494E00000000000000000002DD
:1047F00000000080BF0403564F4C545F4D554C548D
:10480000000000000000000003009A992141040408
:10481000414D505F504552564F4C5400000000002F
:10482000000700000088410405414D505F4F464697
:10483000534554000000000000000B000000000081
:104840000306434150414349545900000000000011
:104850000000000F0000404E4500FF000000000077
:104860000000000000000000000000000000000048
:1048700000004572726F723A2041505F48414C5FB0
:104880004D504E473A3A415652416E616C6F6749FE
:104890006E206F7574206F66206368616E6E656C44
:1048A000730D0A00474F494E4720444F574E20464C
:1048B0004F522041205245424F4F540D0A00504163
:1048C0004E49433A207363686564756C65723A3A81
:1048D00073797374656D5F696E697469616C697A07
:1048E00065642063616C6C65646D6F7265207468CB
:1048F000616E206F6E63650050414E49433A20411E
:10490000565253656D6170686F72653A3A74616BA7
:104910006520757365642066726F6D20696E7369BA
:1049200064652074696D65722070726F636573735E
:104930000050414E49433A20535049302077726924
:10494000746520636F6C6C6973696F6E0050414EC3
:1049500049433A2053504930207472616E73666542
:104960007220636F6C6C6973696F6E0001021020B6
:104970002008081020401020408002010201080495
:104980000201010204081020408080402010080429
:104990000201800402018040201008040201080482
:1049A00002010102040810204080010204081020C6
:1049B00040804005050505070508080808020202B1
:1049C000020A0A08080404040401010101010101AA
:1049D000010303030303030303040707070C0C0C81
:1049E0000C0C0C0C0C020202020606060606060659
:1049F000060B0B0B0B0B0B0B0B0500002000230011
:104A0000260029002C002F003200000100000301C5
:104A10000601090100002200250028002B002E00BD
:104A20003100340002010000050108010B01000003
:104A30002100240027002A002D003000330001014E
:104A40000000040107010A014E414E494E495459E4
:104A5000494E46CDCCCC3D0AD7233C17B7D1387749
:104A6000CC2B329595E6241FB14F0A00002041005F
:104A700000C84200401C4620BCBE4CCA1B0E5AAEA9
:104A8000C59D74003A9109BCCF025B044504112412
:104A90001FBECFEFD1E2DEBFCDBF00E00CBF15E0FF
:104AA000A0E0B2E0E4E0FCEE02E00BBF02C0079041
:104AB0000D92AA31B107D9F713E1AAE1B5E001C01F
:104AC0001D92A43DB107E1F71AE4CEE8DAE400E074
:104AD00006C022970109FE010BBF0F940172C43872
:104AE000D10780E00807A9F70E9461950D94007630
:104AF0000C9400000895009739F0019791F480918B
:104B000074129091751204C0809176129091771270
:104B1000DC01ED91FC910680F781E02D199597FF5E
:104B2000089580E090E00895E091AF0EF091B00E0E
:104B30000084F185E02D8FEA9EE01995089508958F
:104B4000089580E00895A0919912B0919A12ED9184
:104B5000FC9111970280F381E02DCD011995089504
:104B6000A0919912B0919A12ED91FC911197028047
:104B7000F381E02DCD0119950895809199129091BE
:104B80009A12DC01ED91FC910480F581E02D1995DC
:104B900008958091991290919A12DC01ED91FC9107
:104BA0000680F781E02D19950895809195129091D6
:104BB0009612DC01ED91FC916091C40F615004806C
:104BC000F581E02D19959C012F5833402B39344045
:104BD000E8F49C012F5C344022383105C8F09C0178
:104BE0002155354022383105A8F09C01235D354020
:104BF0002238310588F09C01255536402138310591
:104C000068F0863D964060F085E008958FEF089546
:104C100081E0089582E0089583E0089584E0089596
:104C200080E0089580918B0F813031F485E19BE025
:104C30009093200280931F0208950F931F93CF93A8
:104C4000DF93C0911F02D0912002088119816091E9
:104C50009B0F70919C0F77FF03C07195619571094F
:104C6000882777FD8095982F0F948D6C9B01AC0160
:104C7000D8015096ED91FC9151970091EE066CE8A9
:104C800076E0CE011995DF91CF911F910F91089594
:104C90000F931F9360919E0670919F068091A006CE
:104CA0009091A1060091BD061091BE062091BF060D
:104CB0003091C006601B710B820B930B0F948D6CAF
:104CC0002AE037ED43E25CE30F94B86E1F910F9139
:104CD00008950F931F938091CD0F9091CE0F24E6EE
:104CE000289F8001299F100D1124222717FD209550
:104CF000322F60919E0670919F068091A006909140
:104D0000A106601B710B820B930B1F910F910895ED
:104D1000E091FE10F091FF10A081B18185E69AE04C
:104D20009F938F93FF93EF935096ED91FC91519742
:104D300019950F900F900F900F9008950F931F9358
:104D4000CF93DF93E091FE10F091FF10A081B1812D
:104D50008CE79CE09F938F93FF93EF935096ED9198
:104D6000FC91519719950F900F900F900F90809193
:104D7000FE109091FF10DC01ED91FC910084F18513
:104D8000E02D19958F3FBFEF9B0789F38F7D893504
:104D9000910509F041C0E091FE10F091FF10A08153
:104DA000B1818BE69CE09F938F93FF93EF93509696
:104DB000ED91FC91519719950F900F900F900F90D6
:104DC000C0E0D0E000918F1210919012D801ED91C7
:104DD000FC910284F385E02D40E0BE01C8011995E5
:104DE0002196C115B0E1DB0789F7E091FE10F09143
:104DF000FF10A081B18185E69CE09F938F93FF9384
:104E0000EF935096ED91FC91519719950F900F905B
:104E10000F900F9080E001C08FEFDF91CF911F9135
:104E20000F910895E091FE10F091FF10A081B181E3
:104E3000882319F08BEF91E102C087EF91E19F93F6
:104E40008F93FF93EF935096ED91FC9151971995A5
:104E50000F900F900F900F90E091FE10F091FF10C7
:104E6000A081B18180EF91E19F938F93FF93EF93A6
:104E70005096ED91FC91519719950F900F900F90CE
:104E80000F900895E091FE10F091FF10A081B18184
:104E900081EB9DE09F938F93FF93EF935096ED915D
:104EA000FC91519719950F900F900F900F9080E003
:104EB00008958091991290919A12DC01ED91FC91E4
:104EC000068CF78DE02D60E0199580E008958091C3
:104ED000931290919412DC01ED91FC910088F1897C
:104EE000E02D19959091F30789138093F3070895A6
:104EF000CF93DF93262F462F50E0DC01CD91DC913C
:104F00004D305105E8F54E585F4FFA010D949171FF
:104F1000EA85FB8562EF7EE031C0EA85FB856BEEBA
:104F20007EE02CC0EA85FB8561EE7EE027C0EA8545
:104F3000FB8568ED7EE022C0EA85FB8563ED7EE0BF
:104F40001DC0EA85FB856DEC7EE018C0EA85FB8517
:104F500067EC7EE013C0EA85FB8560EC7EE00EC066
:104F6000EA85FB856BEB7EE009C0EA85FB8567EB94
:104F70007EE004C0EA85FB8560EB7EE0199511C0F8
:104F80001F922F9327EA3EE03F932F939F938F9397
:104F9000E889F98919950F900F900F900F900F9055
:104FA0000F90DF91CF910895FF920F931F93CF93AE
:104FB000DF93F82E8B01C0919712D0919812E8815F
:104FC000F9810680F781E02D682FCE011995E881DF
:104FD000F9810684F785E02DA8016F2DCE01199582
:104FE000CDB7DEB7E5E00D948371E091FE10F0914E
:104FF000FF10A081B1818DE791E19F938F93FF9383
:10500000EF935096ED91FC91519719950F900F9059
:105010000F900F9008950F931F93CF93DF93E5DFC9
:1050200068EE73E080E090E08EDDE091FE10F0919C
:10503000FF10A081B1818CE490E19F938F93FF9347
:10504000EF935096ED91FC91519719950F900F9019
:105050000F900F90C0918512D0918612E881F9814E
:105060000480F581E02DCE011995892B79F0A88176
:10507000B9810D911C9111971896ED91FC9119979A
:10508000CE011995682FCE01F80119958091FE1077
:105090009091FF10DC01ED91FC910480F581E02DF1
:1050A000199518161906D4F680E0DF91CF911F915B
:1050B0000F910895A0E0B0E0E0E6F8E20D9462718F
:1050C00094DF68EE73E080E090E03DDDC0918512F2
:1050D000D09186120091831210918412D02EC12E8D
:1050E000BC2EAD2EE881F9810480F581E02DCE0142
:1050F0001995892B89F0D801ED91FC91E080F18020
:10510000E881F9810084F185E02DCE011995682FA1
:105110008D2D9C2DF7011995D801ED91FC910480FE
:10512000F581E02DC8011995892B89F0E881F98175
:10513000E080F180D801ED91FC910084F185E02DB3
:10514000C8011995682F8B2D9A2DF701199580911B
:10515000FE109091FF10DC01ED91FC910480F5812F
:10516000E02D1995181619060CF0BCCF80E0CDB7CC
:10517000DEB7EAE00D947E71A0E0B0E0E2ECF8E288
:105180000D946471EC016A017B01C901B8012BED3A
:105190003FE049EC50E40F94B86E9B01AC0160E035
:1051A00070E080E89FE30F94F26B9B01AC01C701B4
:1051B000B6010F940E6B9B01AC01C701B6010F94B1
:1051C000F26B6A837B838C839D83CDB7DEB7E8E087
:1051D0000D9480718F929F92AF92BF92CF92DF9287
:1051E000EF92FF92CF93DF93EC014A015B018E8136
:1051F00081110AC0CB01BA010F948D6C6F8378873F
:1052000089879A8781E08E83CF80D884E984FA8465
:10521000C501B4010F948D6CA70196010F940D6B1D
:105220002A813B814C815D810F94B86E9B01AC015A
:10523000C701B6010F940E6B6F83788789879A87B1
:105240000F945A6CDF91CF91FF90EF90DF90CF9049
:10525000BF90AF909F908F90089520E030E0FC01C8
:10526000E20FF31F12821382148215822C5F3F4FCC
:105270002C313105A1F7FC01168E0895FC01128234
:105280001382148215821682178210861186128666
:1052900013861486158616861786108A118A128A36
:1052A000138A148A158A168A0895FC0116820895B5
:1052B000A0E0B0E0EEE5F9E20D946471EC016A0162
:1052C0007B01C901B801A70196010F940E6B9B01E8
:1052D000AC01C701B6010F94F26B6A837B838C83A8
:1052E0009D83CDB7DEB7E8E00D948071CF93DF9357
:1052F000EC01CB01BA010F948D6C6F83788789879D
:105300009A8781E08E83DF91CF910895CF93DF93C9
:10531000EC01B4DF1F8ADF91CF91089524E0629FF2
:10532000800D911D1124FC0162817381848195811E
:105330000895FC01968981E0890F868BDF0124E0C6
:10534000929FA00DB11D112412964D935D936D9304
:105350007C931597853008F0168ACB01BA01089521
:10536000A0E0B0E0E6EBF9E20D946471EC01E1DF5E
:105370008F89853010F48F5F01C085E08F8B00E04E
:1053800010E0C12CD12C7601FE01E00FF11F22812B
:10539000338144815581C701B6010F940E6B6B01B7
:1053A0007C010C5F1F4F0431110571F76F8970E0AC
:1053B00080E090E00F948D6C9B01AC01C701B601B9
:1053C0000F94F26BCDB7DEB7E8E00D948071FC016D
:1053D000968D81E0890F868FDF0124E0929FA00DDA
:1053E000B11D112412964D935D936D937C93159787
:1053F000873008F0168ECB01BA01089524E0629F31
:10540000800D911D1124FC0162817381848195813D
:105410000895ACE0B0E0EFE0FAE20D9466717C0133
:105420008B01AB0142565F4F6E527F4FCE0101960A
:105430000E94E4DDA80146555F4FBE016F5F7F4FBC
:10544000C7010E94E4DDC7012C96E6E00D9482714D
:105450008091130890911408DC01ED91FC91048077
:10546000F581E02D609104101995809113089091B9
:105470001408DC01ED91FC910284F385E02D19956F
:1054800020E030E048E452E40F94B86E0F945A6C78
:10549000DC01CB014FEF50E060E070E00E94A5C658
:1054A0008093CF070895A3E0B0E0E9E5FAE20D9418
:1054B0005A7189834B011A01FB01A080B180FCED78
:1054C000AF1AF5E0BF0AFA01008111810C5D1540A9
:1054D0004090D80F5090D90F6090DA0F7090DB0F8A
:1054E000B501601B710B882777FD8095982F0F946D
:1054F0008D6CA30192010F94B86E0F945A6C6B01DE
:105500007C017B836A83B501600F711F882777FD5B
:105510008095982F0F948D6CA30192010F94B86E13
:105520000F945A6C8B01F981F230B9F018F4FF2313
:10553000A1F117C02981233049F0243091F4EE27DE
:10554000FF27EC19FD09FB83EA8307C08827992709
:105550008C199D099B838A8304C000271127061B91
:10556000170B48E552E068EA7DEF8A819B810E9433
:10557000A5C67C0148E552E068EA7DEFC8010E94BB
:10558000A5C6F4E2EF1AFAEFFF0AF401F182E08215
:1055900084529A4FF101918380832396E2E10D9426
:1055A0007671AFE0B0E0E7EDFAE20D946071A982A8
:1055B000BA82CB82DC82ED82FE820F831887298734
:1055C0003A874B875C876D877E878F87C4014091C0
:1055D000950F552747FD509560E070E00E94A5C6E5
:1055E0002FE0289F7001299FF00C11242BEFF21A55
:1055F000892B19F48B2D8E7FB82E00918F1210916C
:105600009012D801ED91FC910284F385E02D49813F
:10561000B701C8011995D801ED91FC914B2D45704A
:10562000B7016F5F7F4F0284F385E02DC8011995A4
:10563000D801ED91FC91B7016E5F7F4F0284F38535
:10564000E02D4B81C8011995D801ED91FC912C8179
:105650003D814E815F81B7016D5F7F4F0684F78585
:10566000E02DC8011995D801ED91FC912885398567
:105670004A855B85B701695F7F4F0684F785E02D1A
:10568000C8011995D801ED91FC912C853D854E8579
:105690005F85B701655F7F4F0684F785E02DC80100
:1056A00019952F96ECE00D947C71A0E0B0E0EBE54D
:1056B000FBE20D94627199DC68EE73E080E090E0AB
:1056C00042DA88E9E82E80E1F82E9AE9C92E90E1C5
:1056D000D92E64E670E080E090E035DA8091340FF6
:1056E0009091350F0E94D6B0C091340FD091350FF4
:1056F0008BA10091FE101091FF10D8018823B1F109
:10570000AD90BC908AA11F928F93688979898A890C
:105710009B8924E630E040E050E00F9420705F93D6
:105720004F933F932F938F858F938E858F938D8586
:105730008F938C858F938B858F938A858F938985A3
:105740008F9388858F93DF92CF921F930F93D5010C
:105750005096ED91FC9151971995EDB7FEB7729661
:105760000FB6F894FEBF0FBEEDBF0EC0ED91FC91D9
:10577000FF92EF921F930F930088F189E02D199506
:105780000F900F900F900F908091FE109091FF104E
:10579000DC01ED91FC910480F581E02D199518163E
:1057A00019060CF096CF80E0CDB7DEB7EAE00D9495
:1057B0007E710F931F93CF93DF9317DC68EE73E036
:1057C00080E090E0C0D907EA1FE0CCE9DFE0E0919B
:1057D000FE10F091FF10A081B1811F930F93FF93F2
:1057E000EF935096ED91FC915197199580E198E0D7
:1057F0000F94C41168EB7BE080E090E0A4D9809125
:10580000FE109091FF10DC01ED91FC910480F58178
:10581000E02D19950F900F900F900F901816190604
:105820005CF1E091FE10F091FF10A081B181DF9357
:10583000CF93FF93EF935096ED91FC91519719956B
:1058400080E198E00F94D71168EB7BE080E090E076
:105850007AD98091FE109091FF10DC01ED91FC91BE
:105860000480F581E02D19950F900F900F900F9007
:10587000181619060CF0ABCF80E0DF91CF911F9185
:105880000F910895CF93DF93C2E5DFE088818150C7
:105890000F947C0E9093510F8093500F898181500B
:1058A0000F947C0E90934F0F80934E0F8B818150FD
:1058B0000F947C0E90934D0F80934C0F8A818150F2
:1058C0000F947C0E90934B0F80934A0F64E971E123
:1058D0008091500F9091510F0F94740B64E971E116
:1058E00080914E0F90914F0F0F94740B64E971E10A
:1058F00080914A0F90914B0F0F94740B44E650E047
:1059000060E070E080914C0F90914D0F0F94680B08
:10591000DF91CF910895AF92BF92CF92DF92EF9235
:10592000FF920F931F93A12CB12CC12CD12CE12CF1
:10593000F12C00E010E02FED30E141EC50E163EAA2
:1059400070E185E890E10F94AB0E0F94F90E89EDAC
:1059500095E00F9472291F910F91FF90EF90DF90C7
:10596000CF90BF90AF9008958EE39FE00D94A94F24
:1059700008958091FF0F882321F08DEC9DE00C9419
:1059800098BC089589ED95E00F94922E84EF97E0EE
:105990000D9457120895EF92FF920F931F938091E9
:1059A0001F0290912002DC01ED91FC910190F081A9
:1059B000E02D199560930307709304078093050702
:1059C00090930607E0903A0FF0903B0F00913C0F48
:1059D00010913D0F22273327A9012E193F09400BB3
:1059E000510B0E94AFC66093030770930407809326
:1059F0000507909306071F910F91FF90EF90089570
:105A0000EF92FF920F931F93E091CC09F091CD0993
:105A10000680F781E02D8CEC99E019956093FF06E4
:105A2000709300078093010790930207E09008119C
:105A3000F09009110027F7FC0095102F2091360FE8
:105A40003091370F4091380F5091390F0E94AFC6F7
:105A50006093FF06709300078093010790930207FD
:105A60001F910F91FF90EF9008958FEA9EE00E94A2
:105A700029BB8FEA9EE00E94EBB420E030E048ECC6
:105A800052E40F94B86E0F945A6CAB01BC0184E6DB
:105A900095E0A0CB0895A0E0B0E0E1E5FDE20D9433
:105AA00064718091991290919A12DC01ED91FC91B0
:105AB0000680F781E02D1995209144063091450626
:105AC00040912005509121052417350779F0309336
:105AD00021052093200560931C0570931D0580937C
